:020000020000FC
:100000000CE30AB990E00E943F001095512F0E9426
:100010003F00409541231095122320954223412B08
:10002000642F0E943F001095132320952323122B49
:10003000712F0E943F00122330951323712B0E94D1
:100040003F002123232310954123422B842F50FB73
:10005000A2F960FBA3F970FBA4F980FBA5F9ABB989
:1000600093959A3050F4BFEFCFEFDFEFBA95F1F7E9
:10007000CA95E1F7DA95D1F7C6CF90E0089590FBE5
:1000800010F991FB20F992FB30F993FB40F90895A8
:00000001FF
